:020000023000CC
:10E000000D9472F00D949BF00D949BF00D949BF089
:10E010000D949BF00D949BF00D949BF00D949BF050
:10E020000D949BF00D949BF00D949BF00D949BF040
:10E030000D949BF00D949BF00D949BF00D949BF030
:10E040000D949BF00D949BF00D949BF00D949BF020
:10E050000D949BF00D949BF00D949BF00D949BF010
:10E060000D949BF00D949BF00D949BF00D949BF000
:10E070000D949BF00D949BF00D949BF00D949BF0F0
:10E080000D949BF00D949BF00D949BF00D949BF0E0
:10E090000D949BF00D949BF00D949BF00D949BF0D0
:10E0A0000D949BF00D949BF00D949BF00D949BF0C0
:10E0B0000D949BF00D949BF00D949BF00D949BF0B0
:10E0C0000D949BF00D949BF00D949BF00D949BF0A0
:10E0D0000D949BF00D949BF00D949BF00D949BF090
:10E0E0000D949BF011241FBECFEFD1E2DEBFCDBF58
:10E0F00001E00CBF12E0A0E0B2E0E4E8F0EF03E0E2
:10E100000BBF02C007900D92AA36B107D9F722E0E3
:10E11000AAE6B2E001C01D92AA37B207E1F70F9458
:10E120000FF20D9440F801E20EBF0FEE0DBF112467
:10E130001FBE0D940FF20D9400F0209178023091E3
:10E1400079022115310561F48093C6008091C000E9
:10E1500086FFFCCF8091C00080648093C00008954A
:10E160002230310559F48093D6008091D00086FF8B
:10E17000FCCF8091D00080648093D00008959C01F2
:10E1800090E080E08217930709F40895EFECF7E040
:10E190003197F1F700C000000196F4CFE0ECF0E019
:10E1A00080818260808320E12093C40098E1909375
:10E1B000C100E0EDF0E08081826080832093D40094
:10E1C0009093D1000895019719F480E885B90895D6
:10E1D00015B8089581B1806F81B982B1806F82B91D
:10E1E0006D9A75989D9AA598E1E0F1E0808188622A
:10E1F0008083E2E0F1E080818862808308958F98D7
:10E2000008958F9A0895CF93DF93C82FD62F662352
:10E2100009F448C05D9AC7FF47C0A39A80910201E4
:10E22000C6FF44C0806880930201C5FF41C0A49A24
:10E23000C4FF40C08D9A00C00F9401F182E08A951E
:10E24000F1F700C00F94FFF0C3FF36C0A39A80918E
:10E250000201C2FF33C0806880930201C1FF30C059
:10E26000A49AC0FF2FC08D9A00C00F9401F192E0D4
:10E270009A95F1F700C00F94FFF0A39A80910201E4
:10E28000806880930201A49A8D9AD1111DC0C43078
:10E29000D8F48FE999E10197F1F700C00000DF9110
:10E2A000CF9108955D98B7CFA398B8CF8F77BBCFA4
:10E2B000A498BECF8D98BFCFA398C9CF8F77CCCF6E
:10E2C000A498CFCF8D98D0CF95ED9A95F1F7E6CF62
:10E2D00060E00D9403F180580D9468F181E00D9495
:10E2E00068F182E00D9468F161E00D9403F1CF9341
:10E2F000DF93EC018991811103C0DF91CF910895E3
:10E300000F9474F1CE01F5CFCF93DF93EC01FE01B2
:10E3100084912196811103C0DF91CF9108950F94CC
:10E3200074F1F5CF879A559A9B9AE1E0F1E08081EC
:10E33000806880839C9A859A0F94FFF05D98A39AD9
:10E34000E2E0F1E0808180688083A49A8D9A8FE575
:10E350009AEE0197F1F700C00000A39880818F77B3
:10E36000808300C00F9401F192E09A95F1F700C00C
:10E370000F94FFF08FE090E40197F1F700C00000E8
:10E380000F9401F192E09A95F1F700C00F94FFF01D
:10E390008FE891E00197F1F700C000000F9401F1C0
:10E3A00092E09A95F1F700C00F94FFF085ED8A9501
:10E3B000F1F700008D9800C00F9401F192E09A955A
:10E3C000F1F700C00F94FFF085ED8A95F1F700009A
:10E3D0008D9800C00F9401F192E09A95F1F700C07A
:10E3E0000F94FFF082E08A95F1F700C0A39A00C075
:10E3F0000F9401F192E09A95F1F700C00F94FFF0AD
:10E4000085ED8A95F1F7000088E00F9468F10F948C
:10E410006EF186E00F9468F18CE00D9468F1CDB751
:10E42000DEB7C253D1400FB6F894DEBF0FBECDBFEA
:10E4300094B7F894A89514BE809160008861809389
:10E44000600010926000789493FFAEC08091FC1F32
:10E450009091FD1FA091FE1FB091FF1F8A3A954534
:10E46000AA4AB545B1F48091F41F9091F51FA0918F
:10E47000F61FB091F71F6C017D0173E0372E51E05C
:10E4800015E001E12091F81F3091F91F21153105A8
:10E4900071F400008091C0008D7F8093C00081E105
:10E4A00080935700E895EE27FF270994FFCF40910E
:10E4B000FB1F40FF09C0F601E0925B00309257005D
:10E4C000E89507B600FCFDCF460157016FEF961A9D
:10E4D000A60AB60A41FF56C044702091F81F309139
:10E4E000F91F2115310529F088159905AA05BB05E5
:10E4F00078F0F601E0925B0010935700E89507B6BC
:10E5000000FCFDCF00935700E89575016401BACF78
:10E510004090F01F5090F11F6090F21F7090F31F19
:10E52000442331F16BBEF201679176910B01FC013E
:10E53000A0935B0050935700E89511240296A11D0B
:10E54000B11D72E0470E511C611C711C4092F01FFE
:10E550005092F11F6092F21F7092F31F2330310529
:10E5600060F0225031093093F91F2093F81FB5CF86
:10E570006091F01F7091F11FD9CF1092F91F109286
:10E58000F81FABCF9F5FAF4FBF4F2130E1E03E0799
:10E5900030F03A953093F91F2093F81FB6CF1092C0
:10E5A000F91F1092F81FB1CF1092790210927802E1
:10E5B000279A2F9A8091C00082608093C00080E1EA
:10E5C0008093C40088E18093C10000000F94EAF0BA
:10E5D00080E885B90F94CEF00F9492F10F946EF10C
:10E5E00080E00F946BF181E40F946BF183E092E093
:10E5F0000F9477F187E10F946BF185E192E00F942E
:10E6000077F185E60F946BF184E292E00F9477F155
:10E6100015B810E000E0C12CD12C760167EC862EF5
:10E620006BE1962EA12CB12C8091C00087FD07C014
:10E630008091D00087FD03C001151105A1F08091E4
:10E64000D00087FF06C082E090E09093790280932B
:10E650007802012B09F45AC427982F9884E690E099
:10E660000F94BFF016CFF5E0FA95F1F700002FEF09
:10E67000C21AD20AE20AF20A91E080E031E2C3163D
:10E680003EE4D306E104F10408F490E0092F182FCA
:10E69000C701B601A50194010F94DBF7672B682B26
:10E6A000692B11F685B1805885B9BECF609178028B
:10E6B00070917902EE24E39412E1F12E0AE710E062
:10E6C00061157105A9F49091C00097FD2DC041E03E
:10E6D000E41AF1080109110999F70BBFF701E79056
:10E6E000F690EF20E09431F3EE27FF270994DECF78
:10E6F0006230710561F79091D00097FFE8CF90915B
:10E70000D600833009F413C190F4813009F400C1BC
:10E71000823009F405C1882309F4F3C050E040E0D9
:10E720004130510509F0C2CF9091C600EACF853043
:10E7300009F40CC1863009F42BC1843009F4FBC004
:10E74000873061F7AB2B81F40F946EF184E10F9465
:10E750006BF188E292E00F9477F18DE20F946BF108
:10E760008CE392E00F9477F180917402909175029E
:10E77000A0917602B0917702892B8A2B8B2B91F591
:10E78000C35DDE4F88819981CD52D1400196C35D32
:10E79000DE4F99838883CD52D1400B9718F19FEFBC
:10E7A000291A390AA6E02A16310410F0312C212C3E
:10E7B0008BE50F946BF180E592E00F9477F18CE597
:10E7C000820DB4E02B16310410F082E682190F940A
:10E7D0006BF18AE20F9474F1C35DDE4F19821882E7
:10E7E000CD52D1408091740290917502A091760231
:10E7F000B0917702892B8A2B8B2B09F46BC0809107
:10E800006A0290916B02009709F464C0019739F491
:10E8100088E50F946BF187E592E00F9477F1809192
:10E820006A0290916B02029739F487E50F946BF1BD
:10E830008EE592E00F9477F1209170023091710291
:10E840004091720250917302A4E6B0E00F9404F874
:10E85000CC5DDE4F688379838A839B83C452D14029
:10E8600020917402309175024091760250917702A6
:10E870000F94DBF7C901C15DDE4F288139814A81E0
:10E880005B81CF52D140C25EDE4F288339834A83F9
:10E890005B83CE51D140E2E0F0E030E21816190679
:10E8A0000CF07BC00EE111E00C0F1D1F0E0F1F1F9F
:10E8B0006AE070E00F94C7F7805DD8018C93CB01BC
:10E8C000319760F7CE01825E9E4F0F9477F185E21B
:10E8D0000F9474F12981243109F489C008F077C0BC
:10E8E000263009F4BFC108F060C0223009F489C1A4
:10E8F000233009F477C1213009F45DC180EC8A83AB
:10E90000C8C19B3109F00ACF8BE1D82E81E006CF38
:10E91000D926C45DDE4F9883CC52D14082E0FECE32
:10E92000292F30E0322F2227D92683E0F7CE292B5A
:10E93000D92684E0F3CE9E3071F5D926C85DDE4F2E
:10E9400019821882C852D14085E0E8CEC85DDE4FFA
:10E9500048815981C852D1404F5F5F4FE1E0F0E0FC
:10E96000EC0FFD1FC85DDE4F68817981C852D14030
:10E97000E60FF71F9083D9264217530709F000C30B
:10E98000C85DDE4F39832883C852D14086E0C6CEA9
:10E990009D1509F4D7CE80E0C1CEAEE1B1E0AC0F59
:10E9A000BD1FAE0FBF1F3C938BCF223109F451C165
:10E9B000233109F47CC1203109F423C1CC24C39450
:10E9C000213109F09BCF1A8202E010E09DC02A316C
:10E9D00009F41DC108F071C0283109F425C108F0FF
:10E9E00057C0253109F463C1263109F087CF8A81E8
:10E9F0009B819827892798278C010D5F1F4F1A82CA
:10EA0000243109F045C24091740250917502609121
:10EA1000760270917702452B462B472BF9F06C015B
:10EA2000F12CE12C411451046104710409F01BC262
:10EA300020916A0230916B022130310509F013C236
:10EA400022E030E030936B0220936A02C0927002A1
:10EA5000D0927102E0927202F0927302DE0111967E
:10EA60006BBEF2012791369112962C931297FD01FD
:10EA7000349613963C93139722E0420E511C611C6E
:10EA8000711C02971296009759F71082C12C3CC056
:10EA9000293109F033CF8D81836C99E0E1E0F0E01A
:10EAA000082E90935700E89587B7F82FF170CF2E76
:10EAB00080FDFACF1A821B82A1C02D3181F021374F
:10EAC00009F4E9C02B3109F019CF8D81882309F4AD
:10EAD0009AC0813009F499C081E01A829FC09D815B
:10EAE000903309F050C08F81882309F460C08130D1
:10EAF00009F45FC081E01A821B829C831D828E8391
:10EB00001F82C12C07E010E08BE10F949DF0C45DE3
:10EB1000DE4F8881CC52D1400F949DF0812F0F940D
:10EB20009DF0C45DDE4FD880CC52D140D126802FDD
:10EB30000F949DF0D0268EE00F949DF085E1D826AD
:10EB400041E050E04C0F5D1F040F151F7A010E15B8
:10EB50001F0509F0C9C18D2D0F949DF0C45DDE4FD6
:10EB60002881CC52D1402F5FC45DDE4F2883CC5228
:10EB7000D14085B1805885B9A1E0B0E0C1106CCD1D
:10EB800050E040E0F9C1892F807509F4B4CF89E0E5
:10EB9000F0E0E0E0903539F080E0983509F0ABCF57
:10EBA00089E0E3E0F0E0809357008491A4CF8EE108
:10EBB000A2CF88E9A0CF1A8288E08B8381E48C837E
:10EBC00086E58D8382E58E8389E48F8383E588875C
:10EBD00080E589878FE58A8782E38B87C12C0BE0EC
:10EBE00010E092CFEA81E05980E0E33020F4F0E0D9
:10EBF000E050FE4F80811A828B83C12C03E010E02D
:10EC000083CFC12CE0CE8EE168CF88E966CF1A822F
:10EC100089E0E1E0F0E08093570084918B831C82CF
:10EC2000C12C04E010E070CF8B81803571F48C81B1
:10EC3000883039F489E0E2E0F0E080935700849175
:10EC40004CCF89E0F0E0E0E0F8CF89E0E3E0F0E0ED
:10EC5000F4CF80EC8A83C12C02E010E0812C912C4F
:10EC6000540152CF2A813B814C815D81CC5DDE4FC6
:10EC7000288339834A835B83C452D140CA01B901D6
:10EC80000F94FDF72B013C01440C551C661C771CAE
:10EC90001A82C12C99CE8A81809374028B818093D1
:10ECA00075028C818093760210927702F1CF0A81EF
:10ECB0001B81102701271027233109F09BC0809169
:10ECC000740290917502A0917602B0917702892B1F
:10ECD0008A2B8B2BF9F0411451046104710409F063
:10ECE00055C0C801B0E0A0E080937002909371021B
:10ECF000A0937202B093730281E090E090936B0254
:10ED000080936A0240926C0250926D0260926E0291
:10ED100070926F02811430EE930633E0A306B104C3
:10ED200070F483E0F401A0925B0080935700E895B3
:10ED300007B600FCFDCF4FEF941AA40AB40A4114A1
:10ED400050EE550653E06506710408F0A1CF8B859F
:10ED5000DE011196B301A20121E01B969C911B9745
:10ED60000C01FA0160935B0020935700E895112491
:10ED70004E5F5F4F6F4F7F4F025011091296011582
:10ED8000110539F11A968C911A97E7CF80916C0290
:10ED900090916D02A0916E02B0916F02841595055D
:10EDA000A605B70509F4AECF80917002909171026B
:10EDB000A0917202B0917302800F911FA11DB11D2D
:10EDC0008093700290937102A0937202B0937302C9
:10EDD00099CF85E0F20160925B0080935700E8953F
:10EDE00007B600FCFDCF81E180935700E8952A012A
:10EDF0003B014ECFD301C201B695A7959795879554
:10EE00006C01B801680F791FCC5DDE4F7983688390
:10EE1000C452D140CE5DDE4F8881C252D140CD5D1B
:10EE2000DE4F9881C352D140CC5DDE4FE881F9813D
:10EE3000C452D140EC15FD0559F430E020E0000F3C
:10EE4000111F221F331F400E511E621E731E20CF42
:10EE5000DC016D917D01C6010F9432F8BFEFCB1A32
:10EE6000DB0AC701E1CF40917002509171026091BD
:10EE70007202709173024C0D5D1D6E1D7F1D4093DB
:10EE80007002509371026093720270937302E6CD28
:10EE9000FE0131969F01280F391FB301A20141BD28
:10EEA000C52ED62EE72EFF24C2BC4F5F5F4F6F4F9B
:10EEB0007F4FF89AA0B5A28331962E173F0779F7B6
:10EEC000AC014150510970E060E04F5F5F4F6F4F00
:10EED0007F4F440E551E661E771EE3E0F0E0EC0FF8
:10EEE000FD1FE80FF91FD1CDD701ED917D01CC5D5C
:10EEF000DE4FE883C452D1408E2F0F949DF0CC5D3D
:10EF0000DE4FF881C452D140DF2621CE312C212C96
:10EF1000C35DDE4F19821882CD52D140C45DDE4FF1
:10EF20001882CC52D140D12CC85DDE4F1982188294
:10EF3000C852D140B0E0A0E0812C912C5401412C6A
:10EF4000512C320141E050E06091660270916702FD
:10EF50008091680290916902C15DDE4F6883798378
:10EF60008A839B83CF52D140CE010B96CE5DDE4F7C
:10EF700099838883C252D14030E020E080E0D0CB3A
:10EF8000C85DDE4F59834883C852D140C7CB97FB39
:10EF9000072E16F4009407D077FD09D00F940FF8D0
:10EFA00007FC05D03EF4909581959F4F089570958C
:10EFB00061957F4F0895A1E21A2EAA1BBB1BFD018C
:10EFC0000DC0AA1FBB1FEE1FFF1FA217B307E40748
:10EFD000F50720F0A21BB30BE40BF50B661F771FA0
:10EFE000881F991F1A9469F7609570958095909580
:10EFF0009B01AC01BD01CF010895692796276927C0
:10F0000078278727782708950F9423F8A59F900DD8
:10F01000B49F900DA49F800D911D11240895AA1BEB
:10F02000BB1B51E107C0AA1FBB1FA617B70710F0F3
:10F03000A61BB70B881F991F5A95A9F78095909525
:10F04000BC01CD010895A29FB001B39FC001A39F51
:10F05000700D811D1124911DB29F700D811D112411
:10F06000911D0895262FF999FECF1FBA92BD81BD3B
:10F0700020BD0FB6F894FA9AF99A0FBE019608953A
:04F08000F894FFCF32
:10F084000F020A4F726967696E616C205072757362
:10F094006120693300507275736120526573656134
:10F0A400726368002E2E2E0020446F206E6F742031
:10F0B400646973636F6E6E656374210020557067B5
:10F0C400726164696E67206669726D77617265004A
:10F0D4007C202020207C007772697465200076658E
:0AF0E40072696679200020202000E8
:040000033000E000E9
:00000001FF
